:100000000C9463000C948B000C948B000C948B006C
:100010000C948B000C948B000C948B000C948B0034
:100020000C948B000C948B000C948B000C948B0024
:100030000C948B000C948B000C948B000C948B0014
:100040000C948E010C948B000C9426030C94570393
:100050000C948B000C948B000C948B000C948B00F4
:100060000C948B000C948B000000000024002700EF
:100070002A0000000000250028002B0000000000DE
:1000800023002600290004040404040404040202DA
:100090000202020203030303030301020408102007
:1000A0004080010204081020010204081020000012
:1000B0000007000201000003040600000000000029
:1000C000000000011C0411241FBECFEFD8E0DEBFEA
:1000D000CDBF11E0A0E0B1E0E8EAF9E002C0059090
:1000E0000D92A231B107D9F711E0A2E1B1E001C050
:1000F0001D92A53CB107E1F710E0C6ECD0E004C0CA
:100100002297FE010E94CE04C23CD107C9F70E948B
:100110005E020C94D2040C9400000895CF93DF93F8
:10012000EB016530710538F0C0E0D0E004C086EA2C
:1001300091E00E949C0286EA91E00E946D02009785
:10014000B1F786EA91E061E00E94D20286EA91E08E
:100150006C2F0E94D20286EA91E00E946D02009705
:10016000D1F386EA91E00E949C02DF91CF9108953D
:1001700084E191E061E070E00E948E0090931301B1
:10018000809312018630910524F08091000161E096
:1001900003C08091000160E00E9456016AEF70E0A8
:1001A00080E090E00E94FC01089586EA91E00E94C0
:1001B0006D020097D1F386EA91E00E949C02809143
:1001C000000161E00E94560168EE73E080E090E07B
:1001D0000E94FC018091000160E00E945601089598
:1001E00086EA91E040E855E260E070E00E949E03FC
:1001F0008091000161E00E9432010E94D5000895C3
:1002000084E191E00E948D000895833071F0843084
:1002100028F48130A1F0823021F514C08630B1F08D
:100220008730D1F08430E9F404C0809180008F776A
:1002300003C0809180008F7D80938000089584B5F5
:100240008F7702C084B58F7D84BD08958091B00002
:100250008F778093B00008958091B0008F7D809358
:10026000B000089590E0FC01E656FF4F2491FC0198
:10027000EA57FF4FE491EE23C1F0F0E0EE0FFF1FCD
:10028000E859FF4F85919491DC01662341F49FB7B3
:10029000F8948C91209582238C939FBF08959FB7EB
:1002A000F8948C91822B8C939FBF08950F931F938A
:1002B000DF93CF930F92CDB7DEB7282F30E0F9014F
:1002C000E255FF4F8491F901E656FF4F14912A57EA
:1002D0003F4FF90104910023D9F0882321F069836D
:1002E0000E9405016981E02FF0E0EE0FFF1FEE583C
:1002F000FF4F85919491DC019FB7F894662321F418
:100300008C911095812302C08C91812B8C939FBF7F
:100310000F90CF91DF911F910F9108951F920F922F
:100320000FB60F9211242F933F938F939F93AF9308
:10033000BF938091190190911A01A0911B01B09176
:100340001C0130911D010196A11DB11D232F2D5FB0
:100350002D3720F02D570196A11DB11D20931D01B1
:100360008093190190931A01A0931B01B0931C0173
:100370008091150190911601A0911701B09118017B
:100380000196A11DB11D8093150190931601A093B4
:100390001701B0931801BF91AF919F918F913F9139
:1003A0002F910F900FBE0F901F9018959FB7F89444
:1003B00020911501309116014091170150911801BB
:1003C00086B5A89B06C08F3F21F02F5F3F4F4F4F50
:1003D0005F4F9FBF542F432F322F2227280F311DED
:1003E000411D511D82E0220F331F441F551F8A9566
:1003F000D1F7B901CA010895EF92FF920F931F93AD
:10040000CF93DF937B018C010E94D601EB010FC0DB
:100410000E94D6016C1B7D0B83E0683E780738F0A4
:100420000894E108F10801091109C851DC4FE114F1
:10043000F1040105110561F7DF91CF911F910F9133
:10044000FF90EF900895789484B5826084BD84B560
:10045000816084BD85B5826085BD85B5816085BDBF
:10046000EEE6F0E0808181608083E1E8F0E01082D8
:10047000808182608083808181608083E0E8F0E019
:10048000808181608083E1EBF0E080818460808303
:10049000E0EBF0E0808181608083EAE7F0E080813A
:1004A000846080838081826080838081816080839A
:1004B0008081806880831092C1000895CF93DF937C
:1004C0000E9423020E94F000CEE4D3E00E94B80014
:1004D0002097E1F30E944E03F9CFFC0184859585B6
:1004E000FC01E05CFF4F208131818E5B9F4FFC015E
:1004F00080819181281B390B2F733070C9010895B9
:10050000FC0184859585FC01E05CFF4F40815181B1
:10051000FC01EE5BFF4F208131814217530741F010
:100520000190F081E02DE80FF91F208130E002C03A
:100530002FEF3FEFC9010895FC0184859585FC01EB
:10054000E05CFF4F40815181FC01EE5BFF4F208159
:1005500031814217530771F0A081B181A80FB91FF3
:100560002C918081918101968F739070918380830B
:1005700030E002C02FEF3FEFC9010895DC011E9665
:100580008D919C911F97FC01E05CFF4F8E5B9F4F0C
:1005900040815181DC012D913C9111974217530705
:1005A000B9F708951F93FC01162F26853785D901C9
:1005B000A05CBF4F8D919C91019660E470E00E9419
:1005C0008304D901AE5BBF4F4D915C9111978417A5
:1005D0009507D1F3D901A05CBF4F0D90BC91A02D20
:1005E000A20FB31F1C93A685B785A05CBF4F1196C1
:1005F0009C938E93A689B7892C9181E090E0058C1D
:1006000002C0880F991F0A94E2F7282B2C9381E0EF
:1006100090E01F910895FB01E05CFF4F2081318144
:100620002F5F3F4F2F733070DB01AE5BBF4F4D919B
:100630005C9111972417350739F0A081B181A60F7D
:10064000B71F8C9331832083089508951F920F92D2
:100650000FB60F9211242F933F934F935F936F9395
:100660007F938F939F93AF93BF93EF93FF9380916B
:10067000C6006EE171E00E940B03FF91EF91BF9104
:10068000AF919F918F917F916F915F914F913F912A
:100690002F910F900FBE0F901F90189586EA91E052
:1006A0000E946D02009711F00E94250308951F9289
:1006B0000F920FB60F9211242F933F935F936F9376
:1006C0007F938F939F93AF93BF93EF93FF9320916B
:1006D000A2013091A3018091A4019091A501281756
:1006E000390731F48091C1008F7D8093C10016C01D
:1006F000E091A401F091A501EE59FE4F2081809177
:10070000A4019091A501019660E470E00E94830429
:100710009093A5018093A4012093C600FF91EF91CF
:10072000BF91AF919F918F917F916F915F913F9119
:100730002F910F900FBE0F901F901895DF92EF92A0
:10074000FF920F931F93CF93DF93EC017A018B01FC
:10075000DD24D394403081EE580780E0680780E0C4
:10076000780749F4DD24EC89FD89108260E874E89B
:100770008EE190E00FC0EC89FD8981E090E00E8C65
:1007800002C0880F991F0A94E2F7808360E079E045
:100790008DE390E0A80197010E949604215030401B
:1007A00040405040569547953795279580E1203039
:1007B000380710F0DD20B1F6E889F9893083EA893D
:1007C000FB892083EE89FF89408181E090E09C01D4
:1007D0000A8C02C0220F331F0A94E2F7422B408397
:1007E000EE89FF8940819C010B8C02C0220F331FD0
:1007F0000A94E2F7422B4083EE89FF8940819C01F5
:100800000C8C02C0220F331F0A94E2F7422B408364
:10081000EE89FF8920810D8C02C0880F991F0A94F0
:10082000E2F7809582238083DF91CF911F910F9112
:10083000FF90EF90DF9008951092A9011092A80107
:1008400088EE93E0A0E0B0E08093AA019093AB0122
:10085000A093AC01B093AD01E8EAF1E086E091E04D
:10086000929382938EE191E09587848782E691E06E
:100870009787868785EC90E0918B808B84EC90E065
:10088000938B828B80EC90E0958B848B81EC90E055
:10089000978B868B86EC90E0918F808F84E0828F9F
:1008A00083E0838F87E0848F85E0858F81E0868F6A
:1008B0000895CF92DF92EF92FF920F931F93CF9301
:1008C000DF936C017B018A01C0E0D0E00FC0D7014B
:1008D0006D917D01D601ED91FC910190F081E02DAB
:1008E000C6010995C80FD91F015010400115110507
:1008F00071F7CE01DF91CF911F910F91FF90EF9093
:10090000DF90CF90089597FB092E07260AD077FD38
:1009100004D02ED006D000201AF4709561957F4F38
:100920000895F6F7909581959F4F0895A1E21A2EAC
:10093000AA1BBB1BFD010DC0AA1FBB1FEE1FFF1F83
:10094000A217B307E407F50720F0A21BB30BE40BD3
:10095000F50B661F771F881F991F1A9469F760951A
:100960007095809590959B01AC01BD01CF010895D4
:10097000AA1BBB1B51E107C0AA1FBB1FA617B707C5
:1009800010F0A61BB70B881F991F5A95A9F78095E1
:100990009095BC01CD010895EE0FFF1F0590F491D5
:0809A000E02D0994F894FFCF4B
:1009A8000D0000000000D20259046D029C02800272
:0209B800BE027D
:00000001FF
